:100000007728A0002520841332309200003093001E
:100010005C208C0A910A8E018F0100082005920055
:10002000640000082005930012061305200603193A
:100030008E0A03198F0A1308920090030319910383
:1000400003198C0B10280E0872288417800472285C
:100050008F018E00FF308E07031C8F07031C722850
:1000600003308D00DF3036202A288D01E83E8C00D9
:100070008D09FC30031C3F288C0703183C288C0793
:1000800064008D0F3C280C1845288C1C4928000062
:10009000492808008E00053094000F080D02031D4A
:1000A00053280E080C0204300318013003190230E3
:1000B0001405031DFF307228103094008D018C014F
:1000C000930C920C031C6A280E088C070F08031867
:1000D0000F0F8D078D0C8C0C910C900C940B6028DD
:1000E0001008722883130313831264000800831618
:1000F00018308500803086008312A030A4000F30B5
:10010000A500043085003F3086006400861FB428B7
:10011000640085199B284B30282024088E00250870
:100120008F000530840008300120A6002608A900B1
:100130009C2028088600852829080B3C031CB3282E
:10014000A320A800B32800308A00290882073F3482
:1001500006345B344F3466346D347D3407347F3479
:100160006F34633439340800403086006400851DE4
:10017000BD286400051EF228B428E830A407033027
:100180000318013EA50740308C001F308D00250864
:100190008F0024084A20031DD1285830A4001B30AA
:1001A000A500850A64000508083C031DD92807300E
:1001B000850064008519DD28D92864302820640072
:1001C000861FE9286400851DBD286400051EF228ED
:1001D000DF28323028206400861BEF28EB283F30D0
:1001E00086008528E830A4020330031C013EA502E6
:1001F0008C018D0125088F0024084A20031D042945
:10020000E830A4000330A500850364000508003C25
:10021000031D0C29013085006400051A10290C29E2
:10022000643028206400861F1C296400051EF22803
:100230006400851DBD281229323028206400861BE9
:0A02400022291E293F308600852880
:02400E00FD3F74
:00000001FF
